:1000000000400020B9030000F9030000FB030000DA
:1000100000000000000000000000000000000000E0
:10002000000000000000000000000000FD030000D0
:100030000000000000000000FF03000001040000B9
:100040000304000003040000030400000304000094
:10005000030400000000000003040000030400008B
:100060000304000003040000030400000304000074
:100070000304000003040000030400000304000064
:100080000304000003040000030400000304000054
:100090000304000003040000030400000304000044
:1000A0000304000003040000000000000000000042
:1000B0000000000000000000000000000000000040
:1000C00010B5064C2378002B07D1054B002B02D02E
:1000D000044800E000BF0123237010BD3404002059
:1000E0000000000058070000044B10B5002B03D09F
:1000F0000349044800E000BF10BDC04600000000F6
:100100003804002058070000144B002B00D1124B7C
:100110009D46402292029A1A924600218B460F4633
:100120001148124A121A00F0C3F90D4B002B00D0EF
:1001300098470C4B002B00D098470020002104006A
:100140000D000B4800F05EF900F08EF92000290048
:1001500000F010F800F05EF90000080000400020F8
:1001600000000000000000003404002050040020C3
:100170003504000080B582B000AF04237B6013E03B
:1001800001227B689A401100A023DA05A323DB003B
:10019000D15001227B689A40A023DB0511001A4A46
:1001A00099507B6801337B607B680F2BE8DDA023CF
:1001B000DB05164A00219950A023DA05ED23DB0068
:1001C0000021D150A023DA05A223DB00D2588023DE
:1001D000DB04134007D1A023DA05A123DB00E021D3
:1001E0000902D150EEE7A023DA05A223DB00D258A2
:1001F00080239B021340E5D1A023DB050249E022C6
:1002000012025A50DEE7C0460C0500004407000009
:1002100080B500AF00F036F8031E06D0134B144A29
:100220001A60144B802212021A6000F06BF8031E51
:1002300005D08023DA05C123DB000121D15000F075
:1002400087F8031E0ED00C4B1B68012B07D00A4BFE
:100250000A4A1A60C046084B1B68012BFBD1084BA9
:10026000C0221A60C046BD4680BDC046040500409D
:10027000DFFF07C0186C004000EC064075930000DB
:1002800014EC064080B500AF1A4B1B68FF221340E8
:10029000012B2AD1184B1B680F22134025D1174B75
:1002A0001B68F022134006D1154B1B68F022134047
:1002B00001D101231AE0114B1B68F0221340102BCF
:1002C00006D10F4B1B68F022134001D101230DE032
:1002D0000A4B1B68F0221340302B06D1084B1B68D9
:1002E000F022134001D1012300E000231800BD4695
:1002F00080BDC046E00F00F0E40F00F0E80F00F012
:10030000EC0F00F080B500AF0D4B1B68FF221340CF
:10031000012B11D10B4B1B680F2213400CD10A4B40
:100320001B68F0221340402B06D1084B1B68F022BB
:10033000134001D1012300E000231800BD4680BD19
:10034000E00F00F0E40F00F0E80F00F0EC0F00F019
:1003500080B500AF144B1B68FF221340012B1ED148
:10036000124B1B680F22134019D1114B1B68F0224E
:100370001340A02B06D10F4B1B68F022134001D174
:1003800001230DE00A4B1B68F0221340D02B06D14D
:10039000084B1B68F022134001D1012300E0002329
:1003A0001800BD4680BDC046E00F00F0E40F00F02D
:1003B000E80F00F0EC0F00F003210A4802680A433E
:1003C0000260094802680A4302600849084A094B6A
:1003D0009B1A03DD043BC858D050FBDCFFF718FF25
:1003E000FFF792FE2405004054050040640700001A
:1003F0000000002034040020FEE7FEE7FEE7FEE7F1
:10040000FEE7FEE710B5010000230022002000F007
:100410009DF810BD10B50021040000F00DF9044B4B
:100420001868C36B002B00D09847200000F084F9B7
:100430005407000070B5094B094CE41AA41009D008
:10044000084AA518AD00ED182B68013C9847043DFB
:10045000002CF9D100F078F970BDC04630040020BE
:1004600034040020FFFFFF3F70B50D4E0D4DAD1B56
:10047000AD1006D00024A300F35801349847A542DC
:10048000F9D100F05BF9084E084DAD1BAD1006D058
:100490000024A300F35801349847A542F9D170BD58
:1004A0002804002028040020280400203004002014
:1004B000F0B5830746D0541E002A42D0CEB20200C7
:1004C000032502E01A00013C3BD3531C16702B425B
:1004D000F8D1032C2DD9FF220A40150215432A0416
:1004E00015430F2C16D92700103F3F093E01B44693
:1004F0001E001A0010366644156055609560D56080
:100500001032B242F8D10F2201373F01DB191440FB
:10051000032C0ED9261FB608B700BC461A001F1DB3
:10052000674420C2BA42FCD103220136B6009B19AF
:100530001440002C05D0C9B21C19197001339C421B
:10054000FBD1F0BD14000300C3E7C046F8B5DE469A
:100550009B46314B45461C68A4234E4657465B00DC
:10056000E0B50500E0580E00904600284BD04368E7
:100570001F2B0DDC5C1C002D21D102339B0044603D
:100580001E5000203CBC90469946A246AB46F8BDA2
:10059000224B002B3CD0C820400000E000BF0028C8
:1005A00036D0A42200235200A15843600160A0501D
:1005B00040328350043283500124002DDDD09A0054
:1005C00091468144424688214F467A50C4225200C7
:1005D0009046804442468739994012688A460A43C9
:1005E0009446424661461160842249465F46520065
:1005F0008F50022DC1D1020055468D32FF32116855
:100600000D431560B9E720004D30FF30E050AEE7F4
:1006100001204042B6E7C046540700000000000039
:10062000034B10B5002B02D00248FFF7EBFE10BDC4
:100630000000000035040000F0B55746DE464E4687
:100640004546E0B50F003A4B87B01B680590039311
:100650004933FF330493A422039B52009E58002E7B
:100660004BD0049B9A4601239B467468651E32D486
:10067000C4235B00994604339C46B444634601346A
:10068000A4003419B144019302E0043C013D22D39B
:10069000002F04D0631CFF331B68BB42F5D1736885
:1006A0002268013BAB422FD000232360002AECD00C
:1006B0007368494698465B46AB400968194225D1A4
:1006C000904773684345C6D153461B68B342C2D1B5
:1006D000043C013DDCD2174B002B0ED0726833680E
:1006E000002A1ED1002B1CD052463000136000E0BF
:1006F00000BF53461E68002EB7D107B03CBC9046E1
:100700009946A246AB46F0BD7560CFE7210001983F
:100710008031006809680290184205D10598904719
:10072000CFE7B2461E00E6E708009047C9E7C0469B
:100730005407000000000000FEE7C046F8B5C046C0
:10074000F8BC08BC9E467047F8B5C046F8BC08BC6B
:0C0750009E4670470000002000000000E2
:08075C00ACF9FF7F0100000071
:1007640000000000EC02002054030020BC03002021
:100774000000000000000000000000000000000075
:100784000000000000000000000000000000000065
:100794000000000000000000000000000000000055
:1007A4000000000000000000000000000000000045
:1007B4000000000000000000000000000000000035
:1007C4000000000000000000000000000000000025
:1007D4000000000000000000000000000000000015
:1007E4000000000000000000000000000000000005
:1007F40000000000000000000000000000000000F5
:1008040000000000000000000100000000000000E3
:100814000E33CDAB34126DE6ECDE05000B000000A8
:1008240000000000000000000000000000000000C4
:1008340000000000000000000000000000000000B4
:1008440000000000000000000000000000000000A4
:100854000000000000000000000000000000000094
:100B8400000000000000000021060000E900000051
:040B9400C10000009C
:04000003000003B93D
:00000001FF
